:100000000C942A000C943F000C943F000C943F0089
:100010000C943F000C943F000C943F000C943F0064
:100020000C943F000C943F000C943F000C943F0054
:100030000C943F000C943F000C943F000C943F0044
:100040000C943F000C943F000C943F000C943F0034
:100050000C943F0011241FBECFE5D8E0DEBFCDBF1A
:1000600010E0A0E6B0E0E2E1F8E002C005900D92F9
:10007000A438B107D9F70E9482030C9407040C94AA
:100080000000843000F56830F0F44130E9F421E0FC
:1000900030E0A90101C0440F6A95EAF7823061F0AF
:1000A000833071F0813021F08AB3842B8ABB0895AC
:1000B00087B3842B87BB089584B3842B84BB0895B6
:1000C00081B3842B81BB0895F0F721E001C0220F9A
:1000D0006A95EAF72095823051F0833059F08130EB
:1000E00019F08AB38223E2CF87B38223E3CF84B3AC
:1000F0008223E4CF81B38223E5CF823051F020F414
:10010000811105C06ABB0895833029F0089567BB4B
:10011000089564BB089561BB0895843000F568308C
:10012000F0F44130E9F421E030E0A90101C0440FCE
:100130006A95EAF7823061F0833071F0813021F006
:100140008BB3842B8BBB089588B3842B88BB089515
:1001500085B3842B85BB089582B3842B82BB08951D
:10016000F0F721E001C0220F6A95EAF7209582306E
:1001700051F0833059F0813019F08BB38223E2CFF4
:1001800088B38223E3CF85B38223E4CF82B3822373
:10019000E5CF823051F020F4811105C06BBB08958A
:1001A000833029F0089568BB089565BB089562BB4C
:1001B0000895FA013097D9F0683088F4823099F0C8
:1001C00060F481110EC089B390E002C095958795C7
:1001D0006A95E2F7817080830895833031F08FEF64
:1001E000FACF86B3F1CF83B3EFCF80B3EDCF8FEFEC
:1001F00080930000089508958430F0F46830E0F4AE
:1002000021E030E0A90101C0440F6A95EAF782308D
:1002100061F0833071F0813021F08BB384278BBB88
:10022000089588B3842788BB089585B3842785BB48
:10023000089582B3842782BB0895089540E060E06A
:1002400080E00E94410040E061E080E00E944100C7
:1002500040E062E080E00E94410040E063E080E036
:100260000E94410041E060E080E00E948D0041E09A
:1002700061E080E00E948D0041E062E080E00E9449
:100280008D0041E063E080E00E948D0041E064E089
:1002900080E00E94410041E065E080E00E94410072
:1002A00041E066E080E00E94410041E067E080E0DC
:1002B0000E94410041E064E080E00E948D0041E046
:1002C00065E080E00E948D0041E066E080E00E94F1
:1002D0008D0041E067E080E00C948D004F925F92CA
:1002E0006F927F928F929F92AF92BF92CF92DF9246
:1002F000EF92FF920F931F93CF93DF93CDB7DEB7AB
:10030000A3970FB6F894DEBF0FBECDBF80916000FB
:1003100090916100A0916200B09163008D8F9E8FDB
:10032000AF8FB8A344E0CE014996FC01242F11926F
:100330002A95E9F700917F001091800020918100BB
:10034000309182000D8B1E8B2F8B388F3E01E1E1A7
:100350006E0E711CF30111924A95E9F740E1E4E653
:10036000F0E0DE01119601900D924A95E1F741E02F
:1003700049A35E01F5E1AF0EB11CC12CD12C582E62
:10038000492EF501F081FAA3F301F081FBA340E0CF
:100390006AA18F2F0E948D004E012DE1820E911CCB
:1003A000E52CF42C00E010E0AE014F5D5F4FF4014E
:1003B0006081F70180810E94D90089A1811128C044
:1003C00041E06AA18BA10E948D00F801EE0FFF1F92
:1003D000EE0FFF1FCE010196E80FF91FEC0DFD1D7A
:1003E0008081A3960FB6F894DEBF0FBECDBFDF911C
:1003F000CF911F910F91FF90EF90DF90CF90BF9022
:10040000AF909F908F907F906F905F904F900895E6
:100410009FEF891A990AEFEFEE1AFE0A0F5F1F4F3E
:100420000430110509F6FFEFAF1ABF0A2FEF621A69
:10043000720A41E06AA18BA10E948D008FEFC81A59
:10044000D80A94E0C916D10409F09BCF8FEFC9CF29
:10045000CF93DF930F92CDB7DEB7898340E060E0A2
:1004600081E00E948D0040E061E081E00E948D000B
:10047000698183E00E94C90041E062E081E00E945E
:100480008D008FEC97E00197F1F700C0000040E08D
:1004900062E081E00F90DF91CF910C948D0041E0FC
:1004A00060E081E00E94410041E061E081E00E9463
:1004B000410041E062E081E00E94410040E060E0F4
:1004C00081E00E948D0040E061E081E00E948D00AB
:1004D00040E062E081E00E948D006FEF83E00E94C7
:1004E0007D002FEB8AED90E0215080409040E1F7B5
:1004F00000C0000088E30E9428028FEC97E001977B
:10050000F1F700C000008FE00E9428028FEC97E016
:100510000197F1F700C0000081E00E9428028FE9F6
:100520009FE00197F1F700C0000086E00E942802DA
:100530008FEC97E00197F1F700C000000895CF938A
:10054000DF930F92CDB7DEB7898341E060E081E0B1
:100550000E948D0040E061E081E00E948D00698191
:1005600083E00E94C90041E062E081E00E948D00CA
:100570008FEC97E00197F1F700C0000040E062E0E7
:1005800081E00F90DF91CF910C948D000F931F931A
:10059000CF938C01C0E0892B39F4CF911F910F913B
:1005A00008950E949F02CF5FF801EC0FF11D80813A
:1005B0008111F7CFF2CF813010F061F4605C862FAB
:1005C00080680E9428028FEC97E00197F1F700C045
:1005D0000000089560E0F3CFBF92CF92DF92EF92D8
:1005E000FF920F931F93CF93DF93CDB7DEB72A9778
:1005F0000FB6F894DEBF0FBECDBF6B017C018E013C
:100600000F5F1F4F8AE0F80111928A95E9F7C11434
:10061000D104E104F10491F480E32A960FB6F89432
:10062000DEBF0FBECDBFDF91CF911F910F91FF9025
:10063000EF90DF90CF90BF900C949F025CF48DE21E
:100640000E949F02F094E094D094C094C11CD11CED
:10065000E11CF11CB12CB601C7012AE030E040E0FA
:1006600050E00E94C603F801EB0DF11D605D608350
:1006700069017A01B394C114D104E104F10459F77A
:100680007801EB0CF11C0E151F0581F42A960FB6AC
:10069000F894DEBF0FBECDBFDF91CF911F910F91B8
:1006A000FF90EF90DF90CF90BF900895F701829177
:1006B0007F010E949F02E7CF0F931F93CF93DF9399
:1006C000EC01892BD1F06830C0F4862F880F880F99
:1006D000880F80640E9428028E01085F1F4F899155
:1006E0000E949F02C017D107D1F760E080E0DF9140
:1006F000CF911F910F910C94DB02DF91CF911F914D
:100700000F910895CF93DF93CDB7DEB72B970FB638
:10071000F894DEBF0FBECDBF8BE0E4E7F0E08E01C2
:100720000F5F1F4FD80101900D928A95E1F70E944B
:100730001E010E944F02C8010E94C60260E081E0D3
:100740000E94DB020E946E018F3FE1F38334D9F4F3
:1007500081E00E9428028FE99FE00197F1F700C035
:100760000000C8010E94C60260E081E00E94DB0236
:100770000E946E018F3FE1F78FE39CE90197F1F74B
:1007800000C00000DFCF0E949F02F2CF052E97FB32
:100790001EF400940E94DD0357FD07D00E94E5037C
:1007A00007FC03D04EF40C94DD0350954095309532
:1007B00021953F4F4F4F5F4F0895909580957095CD
:1007C00061957F4F8F4F9F4F0895A1E21A2EAA1B6C
:1007D000BB1BFD010DC0AA1FBB1FEE1FFF1FA217F1
:1007E000B307E407F50720F0A21BB30BE40BF50BEE
:1007F000661F771F881F991F1A9469F76095709577
:10080000809590959B01AC01BD01CF010895F894AE
:02081000FFCF18
:10081200000102033132333435363738392A302376
:10082200433D2B2D5072657373204B65793A00045A
:0408320005060700B0
:00000001FF
