:100000000C942A000C943F000C943F000C943F0089
:100010000C943F000C943F000C943F000C943F0064
:100020000C943F000C943F000C943F000C943F0054
:100030000C943F000C943F000C943F000C943F0044
:100040000C943F000C943F000C943F000C943F0034
:100050000C943F0011241FBECFE5D8E0DEBFCDBF1A
:1000600011E0A0E6B0E0E4E5FEE002C005900D92EC
:10007000AA32B107D9F70E9430040C9428070C94D7
:100080000000843000F56830F0F44130E9F421E0FC
:1000900030E0A90101C0440F6A95EAF7823061F0AF
:1000A000833071F0813021F08AB3842B8ABB0895AC
:1000B00087B3842B87BB089584B3842B84BB0895B6
:1000C00081B3842B81BB0895F0F721E001C0220F9A
:1000D0006A95EAF72095823051F0833059F08130EB
:1000E00019F08AB38223E2CF87B38223E3CF84B3AC
:1000F0008223E4CF81B38223E5CF823051F020F414
:10010000811105C06ABB0895833029F0089567BB4B
:10011000089564BB089561BB0895843000F568308C
:10012000F0F44130E9F421E030E0A90101C0440FCE
:100130006A95EAF7823061F0833071F0813021F006
:100140008BB3842B8BBB089588B3842B88BB089515
:1001500085B3842B85BB089582B3842B82BB08951D
:10016000F0F721E001C0220F6A95EAF7209582306E
:1001700051F0833059F0813019F08BB38223E2CFF4
:1001800088B38223E3CF85B38223E4CF82B3822373
:10019000E5CF823051F020F4811105C06BBB08958A
:1001A000833029F0089568BB089565BB089562BB4C
:1001B0000895FA013097D9F0683088F4823099F0C8
:1001C00060F481110EC089B390E002C095958795C7
:1001D0006A95E2F7817080830895833031F08FEF64
:1001E000FACF86B3F1CF83B3EFCF80B3EDCF8FEFEC
:1001F00080930000089508958430F0F46830E0F4AE
:1002000021E030E0A90101C0440F6A95EAF782308D
:1002100061F0833071F0813021F08BB384278BBB88
:10022000089588B3842788BB089585B3842785BB48
:10023000089582B3842782BB0895089540E060E06A
:1002400080E00E94410040E061E080E00E944100C7
:1002500040E062E080E00E94410040E063E080E036
:100260000E94410041E060E080E00E948D0041E09A
:1002700061E080E00E948D0041E062E080E00E9449
:100280008D0041E063E080E00E948D0041E064E089
:1002900080E00E94410041E065E080E00E94410072
:1002A00041E066E080E00E94410041E067E080E0DC
:1002B0000E94410041E064E080E00E948D0041E046
:1002C00065E080E00E948D0041E066E080E00E94F1
:1002D0008D0041E067E080E00C948D004F925F92CA
:1002E0006F927F928F929F92AF92BF92CF92DF9246
:1002F000EF92FF920F931F93CF93DF93CDB7DEB7AB
:10030000A3970FB6F894DEBF0FBECDBF80916000FB
:1003100090916100A0916200B09163008D8F9E8FDB
:10032000AF8FB8A344E0CE014996FC01242F11926F
:100330002A95E9F7009125011091260120912701C6
:10034000309128010D8B1E8B2F8B388F3E01E1E100
:100350006E0E711CF30111924A95E9F740E1E4E653
:10036000F0E0DE01119601900D924A95E1F741E02F
:1003700049A35E01F5E1AF0EB11CC12CD12C582E62
:10038000492EF501F081FAA3F301F081FBA340E0CF
:100390006AA18F2F0E948D004E012DE1820E911CCB
:1003A000E52CF42C00E010E0AE014F5D5F4FF4014E
:1003B0006081F70180810E94D90089A1811128C044
:1003C00041E06AA18BA10E948D00F801EE0FFF1F92
:1003D000EE0FFF1FCE010196E80FF91FEC0DFD1D7A
:1003E0008081A3960FB6F894DEBF0FBECDBFDF911C
:1003F000CF911F910F91FF90EF90DF90CF90BF9022
:10040000AF909F908F907F906F905F904F900895E6
:100410009FEF891A990AEFEFEE1AFE0A0F5F1F4F3E
:100420000430110509F6FFEFAF1ABF0A2FEF621A69
:10043000720A41E06AA18BA10E948D008FEFC81A59
:10044000D80A94E0C916D10409F09BCF8FEFC9CF29
:10045000CF93DF930F92CDB7DEB7898340E060E0A2
:1004600081E00E948D0040E061E081E00E948D000B
:10047000698183E00E94C90041E062E081E00E945E
:100480008D008FEC97E00197F1F700C0000040E08D
:1004900062E081E00F90DF91CF910C948D0041E0FC
:1004A00060E081E00E94410041E061E081E00E9463
:1004B000410041E062E081E00E94410040E060E0F4
:1004C00081E00E948D0040E061E081E00E948D00AB
:1004D00040E062E081E00E948D006FEF83E00E94C7
:1004E0007D002FEB8AED90E0215080409040E1F7B5
:1004F00000C0000088E30E9428028FEC97E001977B
:10050000F1F700C000008FE00E9428028FEC97E016
:100510000197F1F700C0000081E00E9428028FE9F6
:100520009FE00197F1F700C0000086E00E942802DA
:100530008FEC97E00197F1F700C000000895CF938A
:10054000DF930F92CDB7DEB7898341E060E081E0B1
:100550000E948D0040E061E081E00E948D00698191
:1005600083E00E94C90041E062E081E00E948D00CA
:100570008FEC97E00197F1F700C0000040E062E0E7
:1005800081E00F90DF91CF910C948D000F931F931A
:10059000CF938C01C0E0892B39F4CF911F910F913B
:1005A00008950E949F02CF5FF801EC0FF11D80813A
:1005B0008111F7CFF2CF813010F061F4605C862FAB
:1005C00080680E9428028FEC97E00197F1F700C045
:1005D0000000089560E0F3CFBF92CF92DF92EF92D8
:1005E000FF920F931F93CF93DF93CDB7DEB72A9778
:1005F0000FB6F894DEBF0FBECDBF6B017C018E013C
:100600000F5F1F4F8AE0F80111928A95E9F7C11434
:10061000D104E104F10491F480E32A960FB6F89432
:10062000DEBF0FBECDBFDF91CF911F910F91FF9025
:10063000EF90DF90CF90BF900C949F025CF48DE21E
:100640000E949F02F094E094D094C094C11CD11CED
:10065000E11CF11CB12CB601C7012AE030E040E0FA
:1006600050E00E94E706F801EB0DF11D605D60832C
:1006700069017A01B394C114D104E104F10459F77A
:100680007801EB0CF11C0E151F0581F42A960FB6AC
:10069000F894DEBF0FBECDBFDF91CF911F910F91B8
:1006A000FF90EF90DF90CF90BF900895F701829177
:1006B0007F010E949F02E7CF0F931F93CF93DF9399
:1006C000EC01892BD1F06830C0F4862F880F880F99
:1006D000880F80640E9428028E01085F1F4F899155
:1006E0000E949F02C017D107D1F760E080E0DF9140
:1006F000CF911F910F910C94DB02DF91CF911F914D
:100700000F91089541E00C944100413011F40C9494
:100710008D00E8F30895413019F440E00C948D0009
:1007200010F441E0FBCF08950C94FC00CF93DF93CD
:1007300000D0CDB7DEB789831A8241E06A81898112
:100740000E9441008A818F5F8A838730B1F70F90C2
:100750000F90DF91CF9108950F931F93CF93DF9365
:1007600000D00F92CDB7DEB789834A3000F5E42F71
:10077000F0E0EC58FF4F00816130C0F400951A8220
:100780001B8210E0A8010A8002C0559547950A9483
:10079000E2F741706A8189810E948D008A819B8184
:1007A00001968A839B83079769F701C041F30F90F5
:1007B0000F900F90DF91CF911F910F910895CF93DC
:1007C000DF9300D0CDB7DEB789836A8361110FC094
:1007D00041E06A8189810E948D008A818F5F8A83CE
:1007E0008730B1F70F900F90DF91CF9108958A81F4
:1007F0008130C1F71A8240E06A8189810E948D00B0
:100800008A818F5F8A838730B1F7ECCF41E066E061
:1008100081E00E948D0040E067E081E00C948D0053
:1008200040E066E081E00E948D0041E067E081E009
:100830000C948D0040E066E081E00E948D0040E075
:1008400067E081E00C948D0041E066E081E00E9469
:10085000410041E067E081E00E9441000C941A04ED
:10086000CF93DF93CDB7DEB7C55BD1090FB6F89450
:10087000DEBF0FBECDBF4E0127EA820E911C8091D4
:100880007E0090917F00A0918000B0918100F401E2
:1008900080839183A283B3832E01F3EA4F0E511C10
:1008A00084E0F20111928A95E9F77E01FFE5EF0EEF
:1008B000F11C8FE0E3E8F0E0D70101900D928A95FA
:1008C000E1F75E0120E5A20EB11C8FE0E2E9F0E065
:1008D000D50101900D928A95E1F78FE0E1EAF0E011
:1008E000DE01AF5BBF4F01900D928A95E1F78FE07B
:1008F000E0EBF0E0DE01D29601900D928A95E1F7EF
:1009000081E1EFEBF0E06E019FEFC91AD90AD60141
:1009100001900D928A95E1F7FE01E856FF4FC5550B
:10092000DF4FF983E883CB5AD0408BE0E0EDF0E075
:10093000DE01A856BF4F01900D928A95E1F73E0166
:10094000FAE86F0E711C8EE0EBEDF0E0D301019040
:100950000D928A95E1F780E1E9EEF0E0DE019296F2
:1009600001900D928A95E1F780E1E9EFF0E0DE0178
:10097000529601900D928A95E1F7CE0184589F4FCF
:10098000C355DF4F99838883CD5AD0408EE0E9E08C
:10099000F1E0DE01A458BF4F01900D928A95E1F776
:1009A0001E019EE6290E311C8EE0E7E1F1E0D10147
:1009B00001900D928A95E1F70E941E010E944F025C
:1009C00082E00E94960340E061E082E00E94AC0376
:1009D00063E081E00E94820364E081E00E94820380
:1009E00065E081E00E94820341E063E081E00E94D3
:1009F0008B0341E064E081E00E948B0341E065E00D
:100A000081E00E948B030E942404C7010E94C60259
:100A100060E081E00E94DB0200E010E0CE54DF4F96
:100A2000E882C25BD040CD54DF4FF882C35BD04038
:100A3000CC54DF4FC882C45BD040CB54DF4FD88248
:100A4000C55BD040C555DF4FE881CB5AD040C1557A
:100A5000DF4FE883CF5AD040C455DF4FF881CC5ADE
:100A6000D040C055DF4FF883C05BD040CF54DF4F3C
:100A70007882C15BD040C355DF4F7880CD5AD040DB
:100A8000C255DF4FE880CE5AD040D22CC32C033061
:100A900009F49AC10E946E018F3FE1F390ED980F27
:100AA0009A3060F4143040F4F201E10FF11D8083BC
:100AB0001F5F8AE20E949F02F12C46C08334B9F482
:100AC00060E081E00E94DB02CC54DF4F8881C45B90
:100AD000D040CB54DF4F9881C55BD0400E94C60206
:100AE00060E081E00E94DB02F12C10E02DC08D332C
:100AF00019F7143009F0A1C0D201F401C401FF2498
:100B0000F3944D91319121E0431320E0F222A81794
:100B1000B907B9F721E0F21290C081E00E942802E3
:100B20008FE99FE00197F1F700C00000CE018F5BD5
:100B30009F4F0E94C6029FEFE9E6F8E19150E04026
:100B4000F040E1F700C000000E946E018F3FE1F726
:100B5000EFE3FCE93197F1F700C00000F11409F46C
:100B600096CF81E00E9428028FE99FE00197F1F77C
:100B700000C00000C155DF4F8881CF5AD040C0551A
:100B8000DF4F9881C05BD0400E94C60260E081E0E8
:100B90000E94DB02862DCF54DF4F9881C15BD0408D
:100BA0000E94C6020E946E018F3FE1F3813309F07B
:100BB0008BC00E94060481E00E9428028FE99FE01A
:100BC0000197F1F700C00000CE0182960E94C60294
:100BD0009FEFE9E6F8E19150E040F040E1F700C016
:100BE000000081E00E9428028FE99FE00197F1F761
:100BF00000C00000C155DF4F8881CF5AD040C0559A
:100C0000DF4F9881C05BD0400E94C60260E081E067
:100C10000E94DB02862DCF54DF4F9881C15BD0400C
:100C20000E94C6020E946E018F3FE1F7EFE3FCE9EC
:100C30003197F1F700C00000B5CF0F5F402F61E0A2
:100C400082E00E94AC0381E00E9428028FE99FE0CD
:100C50000197F1F700C000000330B1F40E941A04BC
:100C6000CE01C2960E94C60241E063E081E00E948C
:100C7000850341E064E081E00E94850341E065E096
:100C800081E00E94850318CFC5010E94C6029FEF34
:100C9000E9E6F8E19150E040F040E1F700C00000E3
:100CA00081E00E9428028FE99FE00197F1F700C0E0
:100CB0000000CE54DF4F8881C25BD040CD54DF4F5F
:100CC0009881C35BD0400ACF823371F40E94100434
:100CD00081E00E9428028FE99FE00197F1F700C0B0
:100CE0000000CE01429672CF833371F40E941A0441
:100CF00081E00E9428028FE99FE00197F1F700C090
:100D00000000872D9E2D62CF843309F08BCF81E0C8
:100D10000E9428028FE99FE00197F1F700C00000D0
:100D20008D2D9C2D0E94C60241E063E081E00E946F
:100D30008B0341E064E081E00E948B0341E065E0C9
:100D400081E00E948B0341E063E081E00E94850323
:100D50009FEFE2E5F7E09150E040F040E1F700C09E
:100D6000000041E063E081E00E948B0341E064E029
:100D700081E00E9485032FEF82E597E021508040BB
:100D80009040E1F700C0000041E064E081E00E9493
:100D90008B0341E065E081E00E948503EFEFF2E51F
:100DA00027E0E150F0402040E1F700C0000041E0C2
:100DB00065E081E00E948B038FEF92E5E7E08150D0
:100DC0009040E040E1F70BCF0E941A04FFCF052EC0
:100DD00097FB1EF400940E94FE0657FD07D00E9468
:100DE000060707FC03D04EF40C94FE065095409580
:100DF000309521953F4F4F4F5F4F089590958095C7
:100E0000709561957F4F8F4F9F4F0895A1E21A2EE5
:100E1000AA1BBB1BFD010DC0AA1FBB1FEE1FFF1F9E
:100E2000A217B307E407F50720F0A21BB30BE40BEE
:100E3000F50B661F771F881F991F1A9469F7609535
:100E40007095809590959B01AC01BD01CF010895EF
:040E5000F894FFCF44
:100E5400000102033738392F3435362A3132332D25
:100E640043303D2B3F065B4F666D7D077F6F31320C
:100E7400333400456E7465722050617373776F72FA
:100E8400640057726F6E672050617373776F72647A
:100E940000416363657373204772616E7465640017
:100EA40053797374656D20426C6F636B65640020C5
:100EB400202020202020202020202020202020004E
:100EC400313A435720323A43435700333A53544F4D
:100ED4005020343A4C454453004D6F746F72204394
:100EE4006C6F636B77697365004D6F746F72204329
:100EF4006F756E7465724357004D6F746F72205333
:100F0400746F70706564004C454420416E696D6176
:0A0F140074696F6E00040506070003
:00000001FF
