:100000000C942A000C9434000C9434000C943400AA
:100010000C9434000C9434000C9434000C94340090
:100020000C9434000C9434000C9434000C94340080
:100030000C9434000C9434000C9434000C94340070
:100040000C9434000C9434000C9434000C94340060
:100050000C94340011241FBECFE5D8E0DEBFCDBF25
:100060000E94A3010C94DB010C940000CF93DF935A
:1000700000D000D0CDB7DEB719821A821B821C8255
:1000800019821A821B821C8289819A81AB81BC8170
:100090008035934CA105B105A0F489819A81AB818B
:1000A000BC810196A11DB11D89839A83AB83BC835A
:1000B00089819A81AB81BC818035934CA105B105C2
:1000C00060F30F900F900F900F90DF91CF910895F4
:1000D00060E083E00C9475016830F8F44130F1F091
:1000E000E0F4823009F450C060F4811581F127B347
:1000F00081E001C0880F6A95EAF78095822387BB6B
:100100000895833009F04AC021B381E001C0880F0F
:100110006A95EAF78095822381BB0895823011F1B8
:1001200058F4811541F187B321E001C0220F6A958F
:10013000EAF7822B87BB0895833099F481B321E0DD
:1001400001C0220F6A95EAF7822B81BB08952AB37A
:1001500081E001C0880F6A95EAF7809582238ABB07
:100160000895089584B321E001C0220F6A95EAF74B
:10017000822B84BB08958AB321E001C0220F6A95C7
:10018000EAF7822B8ABB089524B381E001C0880F6F
:100190006A95EAF78095822384BB0895089591E0DB
:1001A000613009F090E09195823049F020F481159A
:1001B00041F097BB0895833031F491BB089594BB0F
:1001C00008959ABB089508956830F8F44130F1F02D
:1001D000E0F4823009F450C060F4811581F128B355
:1001E00081E001C0880F6A95EAF78095822388BB79
:1001F0000895833009F04AC022B381E001C0880F1E
:100200006A95EAF78095822382BB0895823011F1C6
:1002100058F4811541F188B321E001C0220F6A959D
:10022000EAF7822B88BB0895833099F482B321E0EA
:1002300001C0220F6A95EAF7822B82BB08952BB387
:1002400081E001C0880F6A95EAF7809582238BBB15
:100250000895089585B321E001C0220F6A95EAF759
:10026000822B85BB08958BB321E001C0220F6A95D4
:10027000EAF7822B8BBB089525B381E001C0880F7C
:100280006A95EAF78095822385BB089508958230A8
:1002900049F020F4811541F068BB0895833031F4B2
:1002A00062BB089565BB08956BBB089508956830DF
:1002B00090F44115510579F0823091F068F4811580
:1002C00089F086B390E002C0959587956A95E2F72C
:1002D0008170FA0180830895833031F480B3F2CFC6
:1002E00083B3F0CF89B3EECF08956830C0F4823085
:1002F000B9F058F48115E9F088B321E001C0220F6C
:100300006A95EAF7822788BB08958330D9F482B3CF
:1003100021E001C0220F6A95EAF7822782BB089587
:1003200085B321E001C0220F6A95EAF7822785BBD9
:1003300008958BB321E001C0220F6A95EAF7822766
:100340008BBB0895089500D000D0CDB7DEB741E053
:1003500060E083E00E946C0040E060E083E00E9487
:10036000E40060E083E00E94750119821A821B821A
:100370001C8219821A821B821C8289819A81AB811C
:10038000BC818035934CA105B10558F789819A81CC
:10039000AB81BC810196A11DB11D89839A83AB837A
:1003A000BC8389819A81AB81BC818035934CA10546
:0A03B000B10560F3D6CFF894FFCF3B
:00000001FF
