:100000000C942A000C9447000C9447000C94470071
:100010000C9447000C9447000C9447000C94ED029C
:100020000C9416030C943F030C9447000C94470067
:100030000C9447000C9447000C9447000C94470024
:100040000C9447000C9447000C9447000C94470014
:100050000C94470011241FBECFE5D8E0DEBFCDBF12
:1000600010E0A0E6B0E0ECEEF7E002C005900D92E3
:10007000AE36B107D9F720E0AEE6B0E001C01D9280
:10008000AE37B207E1F70E94F1030C94F4030C942D
:100090000000CF93DF9300D0CDB7DEB781E08A8335
:1000A000898320917500309176002F5F3F4F309308
:1000B00076002093750020917300309174002F5FBB
:1000C0003F4F309374002093730020917100309162
:1000D00072002F5F3F4F3093720020937100209188
:1000E0006F00309170002F5F3F4F3093700020936E
:1000F0006F002091750030917600243F310580F02B
:10010000109276001092750090916000913009F085
:1001100071C01092600060E070E080E00E94910287
:1001200080917300909174008934910540F0109291
:1001300074001092730061E082E00E9417028091C7
:10014000710090917200883E9140A8F01092720068
:100150001092710080916E008F5F80936E0080918D
:100160006E008A3011F410926E0040916E0061E0D2
:1001700080E00E94970380916F009091700082361A
:10018000910598F11092700010926F00AE014E5FD1
:100190005F4F60E081E00E94F401AE014F5F5F4F6E
:1001A00061E081E00E94F4018A81998181112CC073
:1001B0009130D9F48091610090916200873E910561
:1001C00000F58091610090916200499690936200E1
:1001D0008093610080916000813039F4609161000A
:1001E0007091620080E00E9491020F900F90DF9169
:1001F000CF910895809360006091610070916200DA
:100200008CCF8FEF90E0E2CF9111EFCF813069F783
:100210008091610090916200499730F08091610077
:10022000909162004997D2CF1092620010926100C3
:10023000D1CF41E065E083E00E945C0161E082E0B3
:100240000E94680361E082E00E947E0380E00E94D9
:10025000810340916E0061E080E00E94970340E0DE
:1002600060E081E00E945C0141E060E081E00E948A
:10027000A80140E061E081E00E945C0141E061E0B2
:1002800081E00E94A80163E085E00E94410262E0F3
:1002900080E00E94A902609161007091620080E09C
:1002A0000E94910260E089E490E00E94E00280E018
:1002B0000E94C0020C943902843000F56830F0F4DA
:1002C0004130E9F421E030E0A90101C0440F6A9512
:1002D000EAF7823061F0833071F0813021F08AB327
:1002E000842B8ABB089587B3842B87BB089584B37E
:1002F000842B84BB089581B3842B81BB0895F0F7D0
:1003000021E001C0220F6A95EAF72095823051F072
:10031000833059F0813019F08AB38223E2CF87B35A
:100320008223E3CF84B38223E4CF81B38223E5CF5A
:10033000823051F020F4811105C06ABB08958330EA
:1003400029F0089567BB089564BB089561BB0895C3
:10035000843000F56830F0F44130E9F421E030E019
:10036000A90101C0440F6A95EAF7823061F0833039
:1003700071F0813021F08BB3842B8BBB089588B34F
:10038000842B88BB089585B3842B85BB089582B3E5
:10039000842B82BB0895F0F721E001C0220F6A95FB
:1003A000EAF72095823051F0833059F0813019F00E
:1003B0008BB38223E2CF88B38223E3CF85B382233A
:1003C000E4CF82B38223E5CF823051F020F4811153
:1003D00005C06BBB0895833029F0089568BB08956C
:1003E00065BB089562BB0895FA013097D9F0683073
:1003F00088F4823099F060F481110EC089B390E0E6
:1004000002C0959587956A95E2F78170808308957B
:10041000833031F08FEFFACF86B3F1CF83B3EFCFD4
:1004200080B3EDCF8FEF809300000895089584305E
:10043000F0F46830E0F421E030E0A90101C0440F9D
:100440006A95EAF7823061F0833071F0813021F0F3
:100450008BB384278BBB089588B3842788BB08950A
:1004600085B3842785BB089582B3842782BB089512
:1004700008958FB780688FBF08958FB78F778FBF2C
:1004800008959EB5987F9EBD9FB59C7F9FBD9EB5EC
:10049000977E9EBD9FB5282F2370922B9FBD9EB542
:1004A000880F8871982B9EBD1DBC1CBC1BBC1ABC40
:1004B00019BC18BC683040F4609377008EB5887F13
:1004C0008EBD8EB5862B8EBD08951FBC1EBC1DBC77
:1004D0001CBC1BBC1ABC19BC18BC89B78B7F89BF5C
:1004E00089B78F7E89BF89B7877F89BF10927700D0
:1004F00008958EB5887F8EBD8EB590917700892B3B
:100500008EBD08958EB5887F8EBD08959DBD8CBD2E
:100510000895009729F02CB53DB5FC012083318367
:100520000895813018F47BBD6ABD089511F479BD3A
:1005300068BD08956115710539F0813030F48AB5D0
:100540009BB5FB01808391830895F1F788B599B538
:10055000F8CF643060F4813058F48FB58F738FBD5D
:100560008FB56295660F660F607C682B6FBD08952E
:10057000F1F78FB58F7C8FBD8FB56295607FF5CF1A
:10058000813041F0823049F0811103C089B7846025
:1005900089BF089589B78061FBCF89B78860F8CF9C
:1005A000813041F0823049F0811103C089B78B7FDF
:1005B00089BF089589B78F7EFBCF89B7877FF8CF32
:1005C000009751F0633040F4E62FF0E0EE0FFF1F8C
:1005D000E858FF4F8083918308951F920F920FB6C2
:1005E0000F9211242F933F934F935F936F937F93B9
:1005F0008F939F93AF93BF93EF93FF93E0917A0014
:10060000F0917B00309709F00995FF91EF91BF9130
:10061000AF919F918F917F916F915F914F913F919A
:100620002F910F900FBE0F901F9018951F920F9251
:100630000FB60F9211242F933F934F935F936F93B5
:100640007F938F939F93AF93BF93EF93FF93E0912B
:100650007C00F0917D00309709F00995FF91EF91B2
:10066000BF91AF919F918F917F916F915F914F91CA
:100670003F912F910F900FBE0F901F9018951F92D2
:100680000F920FB60F9211242F933F934F935F93C6
:100690006F937F938F939F93AF93BF93EF93FF934A
:1006A000E0917800F0917900309709F00995FF9179
:1006B000EF91BF91AF919F918F917F916F915F91DA
:1006C0004F913F912F910F900FBE0F901F90189553
:1006D000CF93DF9300D0CDB7DEB789836A8341E043
:1006E0000E945C0140E06A8189810F900F90DF9148
:1006F000CF910C94A80141E00C94A80140E00C9427
:10070000A801CF93DF9300D0CDB7DEB789831A82DB
:1007100041E06A8189810E945C018A818F5F8A83BE
:100720008730B1F70F900F90DF91CF9108950F931D
:100730001F93CF93DF9300D00F92CDB7DEB789839D
:100740004A3000F5E42FF0E0ED59FF4F00816130B1
:10075000C0F400951A821B8210E0A8010A8002C032
:10076000559547950A94E2F741706A8189810E9404
:10077000A8018A819B8101968A839B83079769F7E9
:1007800001C041F30F900F900F90DF91CF911F9117
:100790000F910895CF93DF9300D0CDB7DEB7898353
:1007A0006A8361110FC041E06A8189810E94A801BA
:1007B0008A818F5F8A838730B1F70F900F90DF9126
:1007C000CF9108958A818130C1F71A8240E06A8111
:1007D00089810E94A8018A818F5F8A838730B1F75F
:0C07E000ECCF0E941901FFCFF894FFCF6E
:0E07EC000180003F065B4F666D7D077F6F004A
:00000001FF
